:020000040800F2
:100000000028002009140008991300089F13000815
:10001000A5130008AB130008B1130008000000008E
:10002000000000000000000000000000B7130008FE
:10003000C313000800000000CF130008DB13000802
:1000400051140008511400085114000851140008FC
:1000500051140008511400085114000851140008EC
:1000600051140008511400085114000851140008DC
:1000700051140008511400085114000851140008CC
:1000800051140008511400085114000851140008BC
:1000900051140008511400085114000851140008AC
:1000A000511400085114000851140008511400089C
:1000B000E913000851140008000000005114000862
:1000C0005114000800000000000000005114000856
:1000D0000000000051140008511400080000000046
:1000E00051140008511400085114000800000000C9
:1000F0000000000000000000000000000000000000
:0C01000000000000000000005FF808F1A3
:10010C0010B5054C237833B9044B13B10448AFF345
:10011C0000800123237010BD0C00002000000000A3
:10012C00882A000808B5034B1BB103490348AFF3F9
:10013C00008008BD0000000010000020882A000884
:10014C0080B483B000AF7860054A7B681360054BC0
:10015C0000221A6000BF0C37BD4680BC704700BF40
:10016C00380000203C00002080B483B000AF7860E1
:10017C00054A7B681360054B00221A6000BF0C37E0
:10018C00BD4680BC704700BF30000020340000200A
:10019C0080B483B000AF7860054A7B681360054B70
:1001AC0000221A6000BF0C37BD4680BC704700BFF0
:1001BC00280000202C00002080B400AF194B1B68D5
:1001CC00002B0BDD174B1B68013B164A1360154BBC
:1001DC001B68002B02DC144B01221A60134B1B68AA
:1001EC00002B0BDD114B1B68013B104A13600F4BAE
:1001FC001B68002B02DC0E4B01221A600D4B1B6896
:10020C00002B0BDD0B4B1B68013B0A4A1360094B9F
:10021C001B68002B02DC084B01221A6000BFBD4694
:10022C0080BC7047380000203C00002030000020CB
:10023C0034000020280000202C00002080B582B063
:10024C0000AF7860C7F800C07B68072B00F2108302
:10025C0001A252F823F000BF8502000843030008F6
:10026C0001040008BF0400088505000843060008C7
:10027C0001070008BF07000801224FF48071BC4839
:10028C0001F0CCFB01224FF40071B94801F0C6FB20
:10029C0001224FF48061B64801F0C0FB01224FF4FB
:1002AC000061B34801F0BAFB01224FF48051B04811
:1002BC0001F0B4FB01224FF40051AD4801F0AEFB4C
:1002CC0001224FF48041AA4801F0A8FB01224FF40F
:1002DC000041A74801F0A2FB00220421A54801F02F
:1002EC009DFB01220821A34801F098FB01224FF449
:1002FC008061A04801F092FB01224FF400619D48FF
:10030C0001F08CFB01224FF480519A4801F086FBDE
:10031C0001224FF40051974801F080FB01224FF469
:10032C008041944801F07AFB01224FF4004191483E
:10033C0001F074FB9DE201224FF480718C4801F0B6
:10034C006DFB01224FF40071894801F067FB00221C
:10035C004FF48061864801F061FB00224FF400618C
:10036C00834801F05BFB00224FF48051804801F080
:10037C0055FB00224FF400517D4801F04FFB002249
:10038C004FF480417A4801F049FB00224FF40041C0
:10039C00774801F043FB01220421764801F03EFB33
:1003AC0000220821734801F039FB01224FF48061CF
:1003BC00704801F033FB01224FF400616D4801F0ED
:1003CC002DFB01224FF480516A4801F027FB0122DA
:1003DC004FF40051674801F021FB01224FF480419A
:1003EC00644801F01BFB01224FF40041614801F00D
:1003FC0015FB3EE201224FF480715D4801F00EFBCB
:10040C0000224FF400715A4801F008FB00224FF40F
:10041C008061574801F002FB00224FF40061544800
:10042C0001F0FCFA00224FF48051514801F0F6FA29
:10043C0000224FF400514E4801F0F0FA00224FF424
:10044C0080414B4801F0EAFA00224FF40041484841
:10045C0001F0E4FA01220421464801F0DFFA0122FE
:10046C000821444801F0DAFA00224FF48061414837
:10047C0001F0D4FA01224FF400613E4801F0CEFAAB
:10048C0001224FF480513B4801F0C8FA01224FF48D
:10049C000051384801F0C2FA01224FF4804135482E
:1004AC0001F0BCFA01224FF40041324801F0B6FAD7
:1004BC00DFE101224FF480712D4801F0AFFA0022E8
:1004CC004FF400712A4801F0A9FA01224FF480611F
:1004DC00274801F0A3FA01224FF40061244801F0EF
:1004EC009DFA00224FF48051214801F097FA012225
:1004FC004FF400511E4801F091FA01224FF4804153
:10050C001B4801F08BFA01224FF40041184801F00E
:10051C0085FA01220421174801F080FA01220821F2
:10052C00144801F07BFA01224FF48061114801F06C
:10053C0075FA00224FF400610E4801F06FFA0122A7
:10054C004FF480510B4801F069FA01224FF400512D
:10055C00084801F063FA01224FF48041054801F08C
:10056C005DFA01224FF40041024801F057FA80E194
:10057C00000C01400008014001224FF48071BF487B
:10058C0001F04CFA00224FF40071BC4801F046FA1D
:10059C0001224FF48061B94801F040FA01224FF476
:1005AC000061B64801F03AFA00224FF48051B3488A
:1005BC0001F034FA01224FF40051B04801F02EFA48
:1005CC0001224FF48041AD4801F028FA01224FF48A
:1005DC000041AA4801F022FA01220421A84801F0A6
:1005EC001DFA01220821A64801F018FA01224FF445
:1005FC008061A34801F012FA01224FF40061A04877
:10060C0001F00CFA00224FF480519D4801F006FADB
:10061C0001224FF400519A4801F000FA01224FF4E4
:10062C008041974801F0FAF901224FF400419448B7
:10063C0001F0F4F91DE101224FF480718F4801F0B3
:10064C00EDF900224FF400718C4801F0E7F900221B
:10065C004FF48061894801F0E1F900224FF4006108
:10066C00864801F0DBF900224FF48051834801F0F9
:10067C00D5F900224FF40051804801F0CFF9002247
:10068C004FF480417D4801F0C9F900224FF400413C
:10069C007A4801F0C3F901220421794801F0BEF92E
:1006AC0001220821764801F0B9F901224FF480614A
:1006BC00734801F0B3F901224FF40061704801F066
:1006CC00ADF901224FF480516D4801F0A7F90022D9
:1006DC004FF400516A4801F0A1F901224FF4804116
:1006EC00674801F09BF901224FF40041644801F086
:1006FC0095F9BEE001224FF48071604801F08EF94B
:10070C0001224FF400715D4801F088F900224FF48A
:10071C0080615A4801F082F900224FF40061574879
:10072C0001F07CF900224FF48051544801F076F925
:10073C0000224FF40051514801F070F900224FF49F
:10074C0080414E4801F06AF900224FF400414B48B9
:10075C0001F064F901220421494801F05FF90122FA
:10076C000821474801F05AF901224FF480614448AE
:10077C0001F054F901224FF40061414801F04EF9A7
:10078C0001224FF480513E4801F048F901224FF408
:10079C0000513B4801F042F900224FF480413848A7
:1007AC0001F03CF901224FF40041354801F036F9D3
:1007BC005FE001224FF48071304801F02FF90122E3
:1007CC004FF400712D4801F029F901224FF480619A
:1007DC002A4801F023F901224FF40061274801F067
:1007EC001DF901224FF48051244801F017F9012220
:1007FC004FF40051214801F011F901224FF48041CE
:10080C001E4801F00BF901224FF400411B4801F086
:10081C0005F9012204211A4801F000F901220821EE
:10082C00174801F0FBF801224FF48061144801F0E5
:10083C00F5F801224FF40061114801F0EFF80122A4
:10084C004FF480510E4801F0E9F801224FF40051A9
:10085C000B4801F0E3F801224FF48041084801F005
:10086C00DDF800224FF40041054801F0D7F800E014
:10087C0000BF00BF0837BD4680BD00BF000C014063
:10088C000008014090B5B9B000AF07F1F003C7F80C
:10089C00BC3000F0D9FD07F1080300221A605A6041
:1008AC009A60DA6000F02EFC00F0B4FC00F066FCFC
:1008BC00B14801F011FD0F23BB6208237B62322388
:1008CC00C7F8DC300423C7F8C8300023C7F8D83089
:1008DC00AA4B07F12C040FCB84E80F0000233B62DA
:1008EC000E23C7F8C4300023FB610023BB6108232F
:1008FC00C7F8C0300023C7F8D430A14A3B4692E871
:10090C00030083E803009F4A07F13C0392E80300CD
:10091C0083E803009C4A07F1440392E8030083E850
:10092C0003009A4A07F14C0311467022184602F054
:10093C008FF80023C7F8D03017E007F14402D7F83E
:10094C00D03013441B78BB600123FB6000233B6158
:10095C0002237B6107F1080319468D4800F0E4FE81
:10096C00D7F8D0300133C7F8D030D7F8D030072BB8
:10097C00E3DD0023C7F8CC3017E007F13C02D7F8D1
:10098C00CC3013441B78BB600123FB6000233B611C
:10099C0002237B6107F1080319467E4800F0C4FE70
:1009AC00D7F8CC300133C7F8CC30D7F8CC30072B84
:1009BC00E3DD6420FFF7ECFB1920FFF7D5FB642087
:1009CC00FFF7BEFB07F118039C46D7F8D80000F0E0
:1009DC007BFA07F118039C46D7F8D400FFF72EFCDE
:1009EC00012204216A4801F019F800220821684804
:1009FC0001F014F800224FF48061654801F00EF804
:100A0C0000224FF40061624801F008F800224FF414
:100A1C0080515F4801F002F800224FF400515C480D
:100A2C0000F0FCFF00224FF48041594800F0F6FF23
:100A3C0000224FF40041564800F0F0FF0022012143
:100A4C00544800F0EBFF00220221524800F0E6FF70
:100A5C00002204214F4800F0E1FF002208214D48FC
:100A6C0000F0DCFF002210214A4800F0D7FF0022E2
:100A7C002021484800F0D2FF01224021454800F0D7
:100A8C00CDFF454B1B68012B29D1D7F8D43001334E
:100A9C00C7F8D430BB690133BB61D7F8D420D7F881
:100AAC00C0309A4202DB0023C7F8D430BA69D7F8B9
:100ABC00C0309A4204DB0023BB613B6A01333B62CA
:100ACC003A6AD7F8C4309A4201DB00233B6207F143
:100ADC0018039C4600F0D4FA6420FFF731FB2F4B2F
:100AEC001B68012B0FD1D7F8DC300133C7F8DC3091
:100AFC001021274800F0AAFF2021254800F0A6FF6E
:100B0C006420FFF745FB264B1B68012B17D1D7F848
:100B1C00D8300133C7F8D830D7F8D820D7F8C83038
:100B2C009A4202DB0023C7F8D83007F118039C4621
:100B3C00D7F8D80000F0C8F96420FFF715FBD7F8F8
:100B4C00DC303B2B05DD0023C7F8DC307B6A01333E
:100B5C007B627B6A3B2B04DD00237B62BB6A013327
:100B6C00BB62BB6A172B01DD0023BB6207F11803C4
:100B7C009C4600F037FA84E740000020A02A0008C9
:100B8C00B02A0008B82A0008C02A0008C82A0008A1
:100B9C0000080140000C01403C0000202C0000200B
:100BAC003400002080B582B000AF7860C7F800C078
:100BBC007B68092B00F2808101A252F823F000BF60
:100BCC00F50B00083D0C0008850C0008CD0C000846
:100BDC00150D00085D0D0008A50D0008ED0D0008B1
:100BEC00350E00087D0E000800220121B54800F0EA
:100BFC0015FF00220221B34800F010FF002204214F
:100C0C00B04800F00BFF00220821AE4800F006FFB0
:100C1C0000221021AB4800F001FF00222021A9483E
:100C2C0000F0FCFE01224021A64800F0F7FE44E152
:100C3C0001220121A34800F0F1FE00220221A1486B
:100C4C0000F0ECFE002204219E4800F0E7FE012299
:100C5C0008219C4800F0E2FE01221021994800F086
:100C6C00DDFE01222021974800F0D8FE0122402110
:100C7C00944800F0D3FE20E100220121914800F0BD
:100C8C00CDFE002202218F4800F0C8FE0122042173
:100C9C008C4800F0C3FE002208218A4800F0BEFEFA
:100CAC0000221021874800F0B9FE0122202185483E
:100CBC0000F0B4FE00224021824800F0AFFEFCE0C0
:100CCC00002201217F4800F0A9FE002202217D486C
:100CDC0000F0A4FE002204217A4800F09FFE0022BE
:100CEC000821784800F09AFE01221021754800F086
:100CFC0095FE01222021734800F090FE0022402135
:100D0C00704800F08BFED8E0012201216D4800F004
:100D1C0085FE002202216B4800F080FE0022042197
:100D2C00684800F07BFE01220821664800F076FE40
:100D3C0001221021634800F071FE0022202161483D
:100D4C0000F06CFE002240215E4800F067FEB4E02B
:100D5C00002201215B4800F061FE0122022159486A
:100D6C0000F05CFE00220421564800F057FE0022E1
:100D7C000821544800F052FE01221021514800F085
:100D8C004DFE002220214F4800F048FE0022402159
:100D9C004C4800F043FE90E000220121494800F04D
:100DAC003DFE01220221474800F038FE00220421BA
:100DBC00444800F033FE00220821424800F02EFE89
:100DCC00002210213F4800F029FE002220213D483E
:100DDC0000F024FE002240213A4800F01FFE6CE097
:100DEC0000220121374800F019FE0022022135486B
:100DFC0000F014FE00220421324800F00FFE012204
:100E0C000821304800F00AFE012210212D4800F084
:100E1C0005FE012220212B4800F000FE012240217A
:100E2C00284800F0FBFD48E000220121254800F095
:100E3C00F5FD00220221234800F0F0FD00220421E0
:100E4C00204800F0EBFD002208211E4800F0E6FDD2
:100E5C00002210211B4800F0E1FD0022202119483E
:100E6C0000F0DCFD00224021164800F0D7FD24E004
:100E7C0000220121134800F0D1FD0022022111486B
:100E8C0000F0CCFD002204210E4800F0C7FD00222A
:100E9C0008210C4800F0C2FD01221021094800F085
:100EAC00BDFD00222021074800F0B8FD00224021A2
:100EBC00044800F0B3FD00E000BF00BF0837BD469A
:100ECC0080BD00BF000C014090B583B000AF7860CE
:100EDC006446C7F800C07B68032B7BD801A252F88C
:100EEC0023F000BF010F0008390F0008710F000834
:100EFC00A90F000800224021394800F08FFD012283
:100F0C008021374800F08AFD01224FF4807134486B
:100F1C0000F084FD01224FF40071314800F07EFD99
:100F2C006369A4461846FFF73DFE54E001224021B8
:100F3C002B4800F073FD00228021294800F06EFD43
:100F4C0001224FF48071264800F068FD01224FF415
:100F5C000071234800F062FDA369A4461846FFF710
:100F6C0021FE38E0012240211D4800F057FD0122EE
:100F7C0080211B4800F052FD00224FF4807118486C
:100F8C0000F04CFD01224FF40071154800F046FDB5
:100F9C00E369A4461846FFF705FE1CE00122402138
:100FAC000F4800F03BFD012280210D4800F036FD7A
:100FBC0001224FF480710A4800F030FD00224FF4FA
:100FCC000071074800F02AFD236AA4461846FFF773
:100FDC00E9FD00E000BF00BF0C37BD4690BD00BF6F
:100FEC000008014080B483B000AF6346C7F804C06A
:100FFC0059690A4692000A44520011469A690A44F9
:10100C001969914214D01A691C4981FB020189109B
:10101C00D2178A1A5A611869184A82FB0012911069
:10102C00C217891A0A4692000A445200811A996121
:10103C00D9690A4692000A44520011461A6A0A44B7
:10104C00D968914214D0DA680C4981FB02018910ED
:10105C00D2178A1ADA61D868084A82FB00129110FA
:10106C00C217891A0A4692000A445200811A196260
:10107C0000BF0C37BD4680BC704700BF6766666614
:10108C0090B585B000AF6446C7F804C00023FB6080
:10109C0023E0A16862681346DB009B1A5B002344C3
:1010AC000B4434331B78012B0AD1FB6823442C33BB
:1010BC001B789BB200221946104800F0AFFC09E0E7
:1010CC00FB6823442C331B789BB2012219460B4836
:1010DC0000F0A4FCFB680133FB60FB68082BD8DD37
:1010EC002368234493F824309BB200221946044809
:1010FC0000F094FC00BF1437BD4690BD000C0140BD
:10110C000008014080B590B000AF07F11803282209
:10111C000021184601F0AAFC3B1D00221A605A60FF
:10112C009A60DA601A610223BB610123BB6210234F
:10113C00FB6200237B6307F11803184600F0A0FC48
:10114C000346002B01D000F0C5F80F237B60002371
:10115C00BB600023FB6000233B6100237B613B1DD4
:10116C000021184600F00CFF0346002B01D000F0C4
:10117C00B1F800BF4037BD4680BD000080B586B0D9
:10118C0000AF07F1080300221A605A609A60DA6017
:10119C003B4600221A605A601D4B4FF080421A6089
:1011AC001B4B41F63F725A60194B00229A60184B48
:1011BC000922DA60164B00221A61154B00229A6143
:1011CC00134801F039F80346002B01D000F082F8E7
:1011DC004FF48053BB6007F1080319460C4801F02B
:1011EC00CFF90346002B01D000F074F800233B60CC
:1011FC0000237B603B461946054801F09BFB0346E8
:10120C00002B01D000F066F800BF1837BD4680BD3A
:10121C004000002080B586B000AF07F10803002223
:10122C001A605A609A60DA60224B9B69214A43F03B
:10123C00040393611F4B9B6903F004037B607B6881
:10124C001C4B9B691B4A43F008039361194B9B6928
:10125C0003F008033B603B6800224FF6FC71164814
:10126C0000F0DCFB00224FF67F71144800F0D6FB37
:10127C004FF6FC73BB600123FB6000233B61022330
:10128C007B6107F1080319460B4800F04DFA4FF645
:10129C007F73BB600123FB6000233B6102237B61F6
:1012AC0007F108031946054800F03EFA00BF18374D
:1012BC00BD4680BD0010024000080140000C0140FA
:1012CC0080B582B000AF7860FEF776FF00BF0837BC
:1012DC00BD4680BD80B400AF72B600BFFEE7000013
:1012EC0080B485B000AF154B9B69144A43F00103E1
:1012FC009361124B9B6903F00103BB60BB680F4BFE
:10130C00DB690E4A43F08053D3610C4BDB6903F06D
:10131C0080537B607B680A4B5B68FB60FB6823F047
:10132C00E063FB60FB6843F08063FB60044AFB688E
:10133C00536000BF1437BD4680BC7047001002409C
:10134C000000014080B584B000AF78607B681B68FA
:10135C00B3F1804F13D10C4BDB690B4A43F0010303
:10136C00D361094BDB6903F00103FB60FB680022CE
:10137C0000211C2000F0A1F91C2000F0BAF900BFDC
:10138C001037BD4680BD00BF0010024080B400AFD6
:10139C00FEE780B400AFFEE780B400AFFEE780B498
:1013AC0000AFFEE780B400AFFEE780B400AF00BF33
:1013BC00BD4680BC704780B400AF00BFBD4680BC4A
:1013CC00704780B400AF00BFBD4680BC704780B58D
:1013DC0000AF00F07FF800BF80BD000080B500AF0B
:1013EC00024800F0C5FF00BF80BD00BF40000020D8
:1013FC0080B400AF00BFBD4680BC7047FFF7F8FF5C
:10140C000B480C490C4A002302E0D458C450043356
:10141C00C4188C42F9D3094A094C002301E013602B
:10142C000432A242FBD301F0EFFAFFF72BFA70471C
:10143C00000000200C000020642B00080C00002091
:10144C008C000020FEE7000080B500AF084B1B6845
:10145C00074A43F010031360032000F023F90F2018
:10146C0000F008F8FFF73CFF0023184680BD00BFD2
:10147C000020024080B582B000AF7860124B1A6831
:10148C00124B1B7819464FF47A73B3FBF1F3B2FB92
:10149C00F3F3184600F03BF90346002B01D001236F
:1014AC000EE07B680F2B0AD8002279684FF0FF30D2
:1014BC0000F003F9064A7B681360002300E0012367
:1014CC0018460837BD4680BD0000002008000020EB
:1014DC000400002080B400AF054B1B781A46054B66
:1014EC001B681344034A136000BFBD4680BC7047A1
:1014FC00080000208800002080B400AF024B1B685D
:10150C001846BD4680BC70478800002080B485B06A
:10151C0000AF78607B6803F00703FB600C4BDB6863
:10152C00BB60BA684FF6FF031340BB60FB681A023E
:10153C00BB68134343F0BF6343F40033BB60044AFE
:10154C00BB68D36000BF1437BD4680BC704700BF7A
:10155C0000ED00E080B400AF044BDB681B0A03F025
:10156C0007031846BD4680BC704700BF00ED00E085
:10157C0080B483B000AF0346FB7197F90730002BA2
:10158C000BDBFB7903F01F02064997F907305B0967
:10159C00012000FA02F241F8232000BF0C37BD46AF
:1015AC0080BC704700E100E080B483B000AF03461C
:1015BC003960FB7197F90730002B0ADB3B68DAB214
:1015CC000C4997F907301201D2B20B4483F800236F
:1015DC000AE03B68DAB20849FB7903F00F03043BDD
:1015EC001201D2B20B441A7600BF0C37BD4680BC38
:1015FC00704700BF00E100E000ED00E080B489B06E
:10160C0000AFF860B9607A60FB6803F00703FB6118
:10161C00FB69C3F10703042B28BF0423BB61FB69DF
:10162C000433062B02D9FB69033B00E000237B61EA
:10163C004FF0FF32BB6902FA03F3DA43BB681A407E
:10164C007B699A404FF0FF317B6901FA03F3D94370
:10165C007B680B40134318462437BD4680BC70474B
:10166C0080B582B000AF78607B68013BB3F1807FBE
:10167C0001D301230FE00A4A7B68013B53600F2121
:10168C004FF0FF30FFF790FF054B00229A60044BA0
:10169C0007221A60002318460837BD4680BD00BFDC
:1016AC0010E000E080B582B000AF78607868FFF79A
:1016BC002DFF00BF0837BD4680BD80B586B000AF9A
:1016CC000346B9607A60FB7300237B61FFF742FF2E
:1016DC0078617A68B9687869FFF790FF024697F9E4
:1016EC000F3011461846FFF75FFF00BF1837BD4695
:1016FC0080BD80B582B000AF0346FB7197F907300F
:10170C001846FFF735FF00BF0837BD4680BD80B5D2
:10171C0082B000AF78607868FFF7A2FF03461846E6
:10172C000837BD4680BD000080B48BB000AF786038
:10173C00396000237B6200233B6248E101227B6A13
:10174C0002FA03F3FB613B681B68FA691340BB6147
:10175C00BA69FB699A4240F037813B685B68A34ADF
:10176C0093425ED0A14A934275D8A14A934258D075
:10177C009F4A93426FD89F4A934252D09D4A9342BC
:10178C0069D89D4A93424CD09B4A934263D89B4A5A
:10179C00934246D0994A93425DD8122B2AD8122BE9
:1017AC0059D801A252F823F02F1800080918000884
:1017BC001B1800085D18000863180008631800085F
:1017CC006318000863180008631800086318000801
:1017DC0063180008631800086318000863180008F1
:1017EC006318000863180008631800081118000833
:1017FC0025180008824A934213D02CE03B68DB6822
:10180C003B6229E03B68DB6804333B6224E03B68C5
:10181C00DB6808333B621FE03B68DB680C333B62E0
:10182C001AE03B689B68002B02D104233B6213E057
:10183C003B689B68012B05D108233B627B68FA69E6
:10184C001A6109E008233B627B68FA695A6103E07C
:10185C0000233B6200E000BFBB69FF2B01D87B6813
:10186C0001E07B6804337B61BB69FF2B02D87B6A88
:10187C009B0002E07B6A083B9B003B617B691A681A
:10188C000F213B6901FA03F3DB431A40396A3B69C8
:10189C0001FA03F31A437B691A603B685B6803F037
:1018AC008053002B00F09080564B9B69554A43F0B7
:1018BC0001039361534B9B6903F00103BB60BB684D
:1018CC00514A7B6A9B08023352F82330FB607B6AD7
:1018DC0003F003039B000F2202FA03F3DB43FA68C5
:1018EC001340FB607B68494A93420DD07B68484AA1
:1018FC00934207D07B68474A934201D1022304E00C
:10190C00032302E0012300E000237A6A02F00302C1
:10191C0092009340FA681343FB603B497B6A9B0837
:10192C000233FA6841F823203B685B6803F48013A8
:10193C00002B06D0384B9A683749BB6913438B6030
:10194C0006E0354B9A68BB69DB43334913408B6027
:10195C003B685B6803F40013002B06D02E4BDA684F
:10196C002D49BB691343CB6006E02B4BDA68BB698E
:10197C00DB4329491340CB603B685B6803F40033BD
:10198C00002B06D0244B5A682349BB6913434B6088
:10199C0006E0214B5A68BB69DB431F4913404B607F
:1019AC003B685B6803F48033002B06D01A4B1A6833
:1019BC001949BB6913430B6006E0174B1A68BB69E6
:1019CC00DB43154913400B607B6A01337B623B6838
:1019DC001A687B6A22FA03F3002B7FF4AFAE00BFC8
:1019EC0000BF2C37BD4680BC704700BF00003210D2
:1019FC000000311000002210000021100000121015
:101A0C0000001110001002400000014000080140CD
:101A1C00000C0140001001400004014080B483B070
:101A2C0000AF78600B467B8013467B707B78002B75
:101A3C0003D07A887B681A6103E07B881A047B6880
:101A4C001A6100BF0C37BD4680BC704780B485B0AE
:101A5C0000AF78600B467B807B68DB68FB607A8824
:101A6C00FB6813401A04FB68D9437B880B401A436C
:101A7C007B681A6100BF1437BD4680BC70470000FC
:101A8C0080B586B000AF78607B68002B01D1012354
:101A9C006CE27B681B6803F00103002B00F087806D
:101AAC00924B5B6803F00C03042B0CD08F4B5B68E0
:101ABC0003F00C03082B12D18C4B5B6803F48033BE
:101ACC00B3F5803F0BD1894B1B6803F40033002B1B
:101ADC006CD07B685B68002B68D1012346E27B6885
:101AEC005B68B3F5803F06D1804B1B687F4A43F49B
:101AFC00803313602EE07B685B68002B0CD17B4B32
:101B0C001B687A4A23F480331360784B1B68774A3E
:101B1C0023F4802313601DE07B685B68B3F5A02F72
:101B2C000CD1724B1B68714A43F4802313606F4BCA
:101B3C001B686E4A43F4803313600BE06B4B1B68DD
:101B4C006A4A23F480331360684B1B68674A23F49A
:101B5C00802313607B685B68002B13D0FFF7CCFCF1
:101B6C00386108E0FFF7C8FC02463B69D31A642BC6
:101B7C0001D90323FAE15D4B1B6803F40033002BFE
:101B8C00F0D014E0FFF7B8FC386108E0FFF7B4FCC4
:101B9C0002463B69D31A642B01D90323E6E1534B6C
:101BAC001B6803F40033002BF0D100E000BF7B680E
:101BBC001B6803F00203002B63D04C4B5B6803F0F3
:101BCC000C03002B0BD0494B5B6803F00C03082B68
:101BDC001CD1464B5B6803F48033002B16D1434B6E
:101BEC001B6803F00203002B05D07B681B69012BDB
:101BFC0001D00123BAE13D4B1B6823F0F8027B684E
:101C0C005B69DB00394913430B603AE07B681B6965
:101C1C00002B20D0364B01221A60FFF76DFC386187
:101C2C0008E0FFF769FC02463B69D31A022B01D985
:101C3C0003239BE12D4B1B6803F00203002BF0D018
:101C4C002A4B1B6823F0F8027B685B69DB00274991
:101C5C0013430B6015E0264B00221A60FFF74CFC77
:101C6C00386108E0FFF748FC02463B69D31A022BA7
:101C7C0001D903237AE11D4B1B6803F00203002BEF
:101C8C00F0D17B681B6803F00803002B3AD07B680B
:101C9C009B69002B19D0174B01221A60FFF72CFC03
:101CAC00386108E0FFF728FC02463B69D31A022B87
:101CBC0001D903235AE10D4B5B6A03F00203002B9D
:101CCC00F0D0012000F09AFA1CE00A4B00221A60B6
:101CDC00FFF712FC38610FE0FFF70EFC02463B6980
:101CEC00D31A022B08D9032340E100BF0010024095
:101CFC0000004242800442429E4B5B6A03F00203A6
:101D0C00002BE9D17B681B6803F00403002B00F067
:101D1C00A6800023FB75974BDB6903F08053002BE7
:101D2C000DD1944BDB69934A43F08053D361914BB3
:101D3C00DB6903F08053BB60BB680123FB758E4BE2
:101D4C001B6803F48073002B18D18B4B1B688A4AD9
:101D5C0043F480731360FFF7CFFB386108E0FFF7A3
:101D6C00CBFB02463B69D31A642B01D90323FDE05C
:101D7C00814B1B6803F48073002BF0D07B68DB680D
:101D8C00012B06D17B4B1B6A7A4A43F00103136289
:101D9C002DE07B68DB68002B0CD1764B1B6A754AF7
:101DAC0023F001031362734B1B6A724A23F0040382
:101DBC0013621CE07B68DB68052B0CD16D4B1B6A36
:101DCC006C4A43F0040313626A4B1B6A694A43F082
:101DDC00010313620BE0674B1B6A664A23F0010395
:101DEC001362644B1B6A634A23F0040313627B681F
:101DFC00DB68002B15D0FFF77FFB38610AE0FFF79B
:101E0C007BFB02463B69D31A41F28832934201D9DB
:101E1C000323ABE0574B1B6A03F00203002BEED0FD
:101E2C0014E0FFF769FB38610AE0FFF765FB024637
:101E3C003B69D31A41F28832934201D9032395E0CE
:101E4C004C4B1B6A03F00203002BEED1FB7D012BE4
:101E5C0005D1484BDB69474A23F08053D3617B683B
:101E6C00DB69002B00F08180424B5B6803F00C03B4
:101E7C00082B61D07B68DB69022B46D13F4B0022DB
:101E8C001A60FFF739FB386108E0FFF735FB0246B3
:101E9C003B69D31A022B01D9032367E0354B1B682E
:101EAC0003F00073002BF0D17B681B6AB3F5803F05
:101EBC0008D1304B5B6823F400327B689B682D495A
:101ECC0013434B602B4B5B6823F474127B68196AC9
:101EDC007B685B6A0B43274913434B60274B0122FA
:101EEC001A60FFF709FB386108E0FFF705FB0246B3
:101EFC003B69D31A022B01D9032337E01D4B1B6816
:101F0C0003F00073002BF0D02FE01C4B00221A6062
:101F1C00FFF7F2FA386108E0FFF7EEFA02463B6988
:101F2C00D31A022B01D9032320E0124B1B6803F0B8
:101F3C000073002BF0D118E07B68DB69012B01D119
:101F4C00012313E00B4B5B68FB60FB6803F48032EE
:101F5C007B681B6A9A4206D1FB6803F470127B689B
:101F6C005B6A9A4201D0012300E00023184618371F
:101F7C00BD4680BD0010024000700040600042422F
:101F8C0080B584B000AF786039607B68002B01D1DC
:101F9C000123D0E06A4B1B6803F007033A689A42AE
:101FAC0010D9674B1B6823F0070265493B68134344
:101FBC000B60634B1B6803F007033A689A4201D02D
:101FCC000123B8E07B681B6803F00203002B20D0D0
:101FDC007B681B6803F00403002B05D0594B5B682E
:101FEC00584A43F4E06353607B681B6803F00803B2
:101FFC00002B05D0534B5B68524A43F4605353603B
:10200C00504B5B6823F0F0027B689B684D4913438F
:10201C004B607B681B6803F00103002B40D07B688E
:10202C005B68012B07D1474B1B6803F40033002B73
:10203C0015D101237FE07B685B68022B07D1414BF4
:10204C001B6803F00073002B09D1012373E03D4B97
:10205C001B6803F00203002B01D101236BE0394B09
:10206C005B6823F003027B685B68364913434B6063
:10207C00FFF742FAF8600AE0FFF73EFA0246FB6807
:10208C00D31A41F28832934201D9032353E02D4BEA
:10209C005B6803F00C027B685B689B009A42EBD197
:1020AC00274B1B6803F007033A689A4210D2244B63
:1020BC001B6823F0070222493B6813430B60204B3B
:1020CC001B6803F007033A689A4201D0012332E0FF
:1020DC007B681B6803F00403002B08D0194B5B686A
:1020EC0023F4E0627B68DB68164913434B607B6822
:1020FC001B6803F00803002B09D0124B5B6823F418
:10210C0060527B681B69DB000E4913434B6000F087
:10211C0021F802460B4B5B681B0903F00F030A49BD
:10212C00CB5C22FA03F3094A1360094B1B6818466F
:10213C00FFF7A0F9002318461037BD4680BD00BF3D
:10214C000020024000100240382B00080000002044
:10215C000400002080B487B000AF0023FB60002394
:10216C00BB6000237B6100237B6000233B611E4B23
:10217C005B68FB60FB6803F00C03042B02D0082B9C
:10218C0003D027E0194B3B6127E0FB689B0C03F065
:10219C000F03174AD35C7B60FB6803F48033002B7E
:1021AC0010D0114B5B685B0C03F00103114AD35C3C
:1021BC00BB607B680D4A02FB03F2BB68B2FBF3F316
:1021CC007B6104E07B680C4A02FB03F37B617B6957
:1021DC003B6102E0054B3B6100BF3B6918461C3775
:1021EC00BD4680BC704700BF0010024000127A0050
:1021FC00482B0008582B000800093D0080B485B01E
:10220C0000AF78600A4B1B680A4AA2FB03235B0AE7
:10221C007A6802FB03F3FB6000BFFB685A1EFA608E
:10222C00002BF9D100BF00BF1437BD4680BC7047EE
:10223C0000000020D34D621080B582B000AF7860F2
:10224C007B68002B01D1012341E07B6893F83D3082
:10225C00DBB2002B06D17B68002283F83C20786827
:10226C00FFF770F87B68022283F83D207B681A68C0
:10227C007B6804331946104600F06EFA7B68012225
:10228C0083F846207B68012283F83E207B6801227C
:10229C0083F83F207B68012283F840207B68012271
:1022AC0083F841207B68012283F842207B6801225D
:1022BC0083F843207B68012283F844207B68012249
:1022CC0083F845207B68012283F83D2000231846C3
:1022DC000837BD4680BD000080B485B000AF786083
:1022EC007B6893F83D30DBB2012B01D0012335E044
:1022FC007B68022283F83D207B681B68DA687B6868
:10230C001B6842F00102DA607B681B68164A934234
:10231C0009D07B681B68B3F1804F04D07B681B68C5
:10232C00124A934211D17B681B689B6803F0070328
:10233C00FB60FB68062B10D07B681B681A687B68F7
:10234C001B6842F001021A6007E07B681B681A6880
:10235C007B681B6842F001021A6000231846143790
:10236C00BD4680BC704700BF002C014000040040FB
:10237C0080B582B000AF78607B681B681B6903F086
:10238C000203022B22D17B681B68DB6803F002037B
:10239C00022B1BD17B681B686FF002021A617B68F1
:1023AC0001221A777B681B689B6903F00303002BDF
:1023BC0003D0786800F0B4F905E0786800F0A7F96C
:1023CC00786800F0B6F97B6800221A777B681B6886
:1023DC001B6903F00403042B22D17B681B68DB68A8
:1023EC0003F00403042B1BD17B681B686FF0040201
:1023FC001A617B6802221A777B681B689B6903F45D
:10240C004073002B03D0786800F08AF905E07868F7
:10241C0000F07DF9786800F08CF97B6800221A775F
:10242C007B681B681B6903F00803082B22D17B68AF
:10243C001B68DB6803F00803082B1BD17B681B6847
:10244C006FF008021A617B6804221A777B681B689C
:10245C00DB6903F00303002B03D0786800F060F90C
:10246C0005E0786800F053F9786800F062F97B6851
:10247C0000221A777B681B681B6903F01003102B72
:10248C0022D17B681B68DB6803F01003102B1BD177
:10249C007B681B686FF010021A617B6808221A7740
:1024AC007B681B68DB6903F44073002B03D07868EE
:1024BC0000F036F905E0786800F029F9786800F04A
:1024CC0038F97B6800221A777B681B681B6903F05C
:1024DC000103012B0ED17B681B68DB6803F0010341
:1024EC00012B07D17B681B686FF001021A617868B9
:1024FC00FEF7E6FE7B681B681B6903F08003802BEC
:10250C000ED17B681B68DB6803F08003802B07D13E
:10251C007B681B686FF080021A61786800F06BFAB8
:10252C007B681B681B6903F04003402B0ED17B6852
:10253C001B68DB6803F04003402B07D17B681B68EA
:10254C006FF040021A61786800F0FCF87B681B6839
:10255C001B6903F02003202B0ED17B681B68DB6802
:10256C0003F02003202B07D17B681B686FF020023F
:10257C001A61786800F036FA00BF0837BD4680BD96
:10258C0080B584B000AF786039600023FB737B6842
:10259C0093F83C30012B01D10223B4E07B6801227B
:1025AC0083F83C207B68022283F83D207B681B6803
:1025BC009B68BB60BB6823F07703BB60BB6823F4EC
:1025CC007F43BB607B681B68BA689A603B681B687A
:1025DC00B3F5005F3ED0B3F5005F00F28780B3F532
:1025EC00805F00F08680B3F5805F7FD8702B1AD0A7
:1025FC00702B7BD8602B50D0602B77D8502B3CD0D5
:10260C00502B73D8402B58D0402B6FD8302B64D024
:10261C00302B6BD8202B60D0202B67D8002B5CD0B4
:10262C00102B5AD062E07B6818683B6899683B684D
:10263C005A683B68DB6800F05EF97B681B689B6836
:10264C00BB60BB6843F07703BB607B681B68BA68F0
:10265C009A604FE07B6818683B6899683B685A68D9
:10266C003B68DB6800F047F97B681B689A687B68FD
:10267C001B6842F480429A603CE07B6818683B68B7
:10268C0059683B68DB681A4600F0BEF87B681B682B
:10269C005021184600F015F92CE07B6818683B684F
:1026AC0059683B68DB681A4600F0DCF87B681B68ED
:1026BC006021184600F005F91CE07B6818683B683F
:1026CC0059683B68DB681A4600F09EF87B681B680B
:1026DC004021184600F0F5F80CE07B681A683B685E
:1026EC001B681946104600F0ECF803E00123FB735D
:1026FC0000E000BF7B68012283F83D207B6800224C
:10270C0083F83C20FB7B18461037BD4680BD80B457
:10271C0083B000AF786000BF0C37BD4680BC7047FB
:10272C0080B483B000AF786000BF0C37BD4680BC6E
:10273C00704780B483B000AF786000BF0C37BD46E3
:10274C0080BC704780B483B000AF786000BF0C379A
:10275C00BD4680BC7047000080B485B000AF786087
:10276C0039607B681B68FB607B68254A934207D005
:10277C007B68B3F1804F03D07B68224A934208D127
:10278C00FB6823F07003FB603B685B68FA681343DB
:10279C00FB607B681A4A934207D07B68B3F1804F89
:1027AC0003D07B68174A934208D1FB6823F440732B
:1027BC00FB603B68DB68FA681343FB60FB6823F043
:1027CC0080023B685B691343FB607B68FA681A60A4
:1027DC003B689A687B68DA623B681A687B689A6225
:1027EC007B68074A934203D13B681A697B681A637A
:1027FC007B6801225A6100BF1437BD4680BC70470C
:10280C00002C01400004004080B487B000AFF86099
:10281C00B9607A60FB681B6A7B61FB681B6A23F0FA
:10282C000102FB681A62FB689B693B613B6923F000
:10283C00F0033B617B681B013A6913433B617B6985
:10284C0023F00A037B617A69BB6813437B61FB68E5
:10285C003A699A61FB687A691A6200BF1C37BD46F7
:10286C0080BC704780B487B000AFF860B9607A6004
:10287C00FB681B6A7B61FB681B6A23F01002FB6818
:10288C001A62FB689B693B613B6923F470433B61B3
:10289C007B681B033A6913433B617B6923F0A003FC
:1028AC007B61BB681B017A6913437B61FB683A69E6
:1028BC009A61FB687A691A6200BF1C37BD4680BCFE
:1028CC00704780B485B000AF786039607B689B68D6
:1028DC00FB60FB6823F07003FB603A68FB681343F2
:1028EC0043F00703FB607B68FA689A6000BF1437FB
:1028FC00BD4680BC704780B487B000AFF860B9604B
:10290C007A603B60FB689B687B617B6923F47F4347
:10291C007B613B681A027B681A43BB6813437A6974
:10292C0013437B61FB687A699A6000BF1C37BD4614
:10293C0080BC704780B485B000AF786039607B682C
:10294C0093F83C30012B01D1022341E07B6801223A
:10295C0083F83C207B68022283F83D207B681B684F
:10296C005B68FB607B681B689B68BB60FB6823F043
:10297C007003FB603B681B68FA681343FB607B6861
:10298C001B68FA685A607B681B68144A934209D02A
:10299C007B681B68B3F1804F04D07B681B68104ABE
:1029AC0093420CD1BB6823F08003BB603B685B682F
:1029BC00BA681343BB607B681B68BA689A607B6813
:1029CC00012283F83D207B68002283F83C20002301
:1029DC0018461437BD4680BC704700BF002C014020
:1029EC000004004080B483B000AF786000BF0C37A7
:1029FC00BD4680BC704780B483B000AF786000BF28
:102A0C000C37BD4680BC704770B500260C4D0D4C84
:102A1C00641BA410A64209D100F030F800260A4D20
:102A2C000A4C641BA410A64205D170BD55F8043B9A
:102A3C0098470136EEE755F8043B98470136F2E724
:102A4C005C2B00085C2B00085C2B0008602B00083A
:102A5C000A44914200F1FF3300D1704710B511F8D0
:102A6C00014B914203F8014FF9D110BD03460244CA
:102A7C00934200D1704703F8011BF9E7F8B500BF8A
:102A8C00F8BC08BC9E467047F8B500BFF8BC08BC43
:042A9C009E4670479B
:102AA000010000000200000003000000040000001C
:102AB00001020304050607080408000000000000E6
:102AC0000000000000000000FFFFFFFFFFFFFFFF0E
:102AD000000000000000FFFFFFFFFFFFFF7F00007E
:102AE00000000000FFFFFFFFFFFF7F490000000024
:102AF0000000FFFFFFFFFF7F4949000000000000CA
:102B0000FFFFFFFF7F494949000000000000FFFF71
:102B1000FF7F49494949000000000000FFFF7F494D
:102B200049494949000000000000FF7F49494949DF
:102B300049FF00000000000000000000000000004D
:102B40000102030406070809020304050607080931
:0C2B50000A0B0C0D0E0F1010010200000B
:042B5C00310100083B
:042B60000D0100085B
:0C2B64000024F40010000000010000003C
:0400000508001409D2
:00000001FF
